:0700000002000E759055325D
:10000B000200297581B575890175B801758ACF759F
:10001B008CCF7830793175A88375881080FE758800
:10002B0000C0E0C0D0758ACF758CCFE7C394006059
:10003B0004070200AB7700E6C394076004060200D6
:10004B004E7600C3E69400602AC3E69401602AC38F
:10005B00E69402602AC3E69403602AC3E694046024
:10006B002AC3E69405602AC3E69406602AC3E69485
:10007B0007602A75900F0200AB7590870200AB7575
:10008B0090C30200AB7590E10200AB7590F00200DB
:10009B00AB7590780200AB75903C0200AB75901E6F
:0A00AB00D0D0D0E075881001293292
:00000001FF
